{
  "_format": "hh-sol-artifact-1",
  "contractName": "Counter",
  "sourceName": "contracts/Counter.sol",
  "abi": [
    {
      "inputs": [],
      "stateMutability": "nonpayable",
      "type": "constructor"
    },
    {
      "inputs": [],
      "name": "dateOfDeployment",
      "outputs": [
        {
          "internalType": "uint256",
          "name": "",
          "type": "uint256"
        }
      ],
      "stateMutability": "view",
      "type": "function"
    },
    {
      "inputs": [],
      "name": "dec",
      "outputs": [],
      "stateMutability": "nonpayable",
      "type": "function"
    },
    {
      "inputs": [],
      "name": "getCounter",
      "outputs": [
        {
          "internalType": "uint256",
          "name": "",
          "type": "uint256"
        }
      ],
      "stateMutability": "view",
      "type": "function"
    },
    {
      "inputs": [],
      "name": "inc",
      "outputs": [],
      "stateMutability": "nonpayable",
      "type": "function"
    },
    {
      "inputs": [],
      "name": "transferOwner",
      "outputs": [],
      "stateMutability": "payable",
      "type": "function"
    },
    {
      "stateMutability": "payable",
      "type": "receive"
    }
  ],
  "bytecode": "0x608060405234801561001057600080fd5b506000808190555033600160006101000a81548173ffffffffffffffffffffffffffffffffffffffff021916908373ffffffffffffffffffffffffffffffffffffffff160217905550426002819055506103ab8061006f6000396000f3fe60806040526004361061004e5760003560e01c8063371303c01461005a57806358ec21f0146100715780638ada066e1461009c578063b3bcfa82146100c7578063df05f42e146100de57610055565b3661005557005b600080fd5b34801561006657600080fd5b5061006f6100e8565b005b34801561007d57600080fd5b50610086610101565b604051610093919061023d565b60405180910390f35b3480156100a857600080fd5b506100b1610107565b6040516100be919061023d565b60405180910390f35b3480156100d357600080fd5b506100dc610110565b005b6100e6610129565b005b6000808154809291906100fa90610287565b9190505550565b60025481565b60008054905090565b600080815480929190610122906102cf565b9190505550565b600160009054906101000a900473ffffffffffffffffffffffffffffffffffffffff1673ffffffffffffffffffffffffffffffffffffffff163373ffffffffffffffffffffffffffffffffffffffff16146101b9576040517f08c379a00000000000000000000000000000000000000000000000000000000081526004016101b090610355565b60405180910390fd5b600160009054906101000a900473ffffffffffffffffffffffffffffffffffffffff1673ffffffffffffffffffffffffffffffffffffffff166108fc479081150290604051600060405180830381858888f19350505050158015610221573d6000803e3d6000fd5b50565b6000819050919050565b61023781610224565b82525050565b6000602082019050610252600083018461022e565b92915050565b7f4e487b7100000000000000000000000000000000000000000000000000000000600052601160045260246000fd5b600061029282610224565b91507fffffffffffffffffffffffffffffffffffffffffffffffffffffffffffffffff82036102c4576102c3610258565b5b600182019050919050565b60006102da82610224565b9150600082036102ed576102ec610258565b5b600182039050919050565b600082825260208201905092915050565b7f6f776e65722063616c6c61626c65000000000000000000000000000000000000600082015250565b600061033f600e836102f8565b915061034a82610309565b602082019050919050565b6000602082019050818103600083015261036e81610332565b905091905056fea26469706673582212200f6805f3bf31320b5886bc150a451e21c8e172730062d7776130633cefc6f6b064736f6c63430008180033",
  "linkReferences": {},
  "deployedLinkReferences": {}
}